S00F000030322D6C6564732E73726563DE
S11300000C9434000C943E000C943E000C943E007E
S11300100C943E000C943E000C943E000C943E0064
S11300200C943E000C943E000C943E000C943E0054
S11300300C943E000C943E000C943E000C943E0044
S11300400C943E000C943E000C943E000C943E0034
S11300500C943E000C943E000C943E000C943E0024
S11300600C943E000C943E0011241FBECFEFD8E048
S1130070DEBFCDBF0E9440000C945D000C940000D4
S1130080259A2D988AB18AB9399A41982D98419A1E
S11300905B9A20E292E04B99FECF3FEF44E38CE081
S11300A0315040408040E1F700C0000085B1822714
S11100B085B988B1892788B9EECFF894FFCFBF
S9030000FC
